{
  "_format": "hh-sol-artifact-1",
  "contractName": "WavePortal",
  "sourceName": "contracts/WavePortal.sol",
  "abi": [
    {
      "inputs": [],
      "stateMutability": "nonpayable",
      "type": "constructor"
    },
    {
      "inputs": [
        {
          "internalType": "address",
          "name": "",
          "type": "address"
        }
      ],
      "name": "count",
      "outputs": [
        {
          "internalType": "uint256",
          "name": "",
          "type": "uint256"
        }
      ],
      "stateMutability": "view",
      "type": "function"
    },
    {
      "inputs": [],
      "name": "getTotalWaves",
      "outputs": [
        {
          "internalType": "uint256",
          "name": "",
          "type": "uint256"
        }
      ],
      "stateMutability": "view",
      "type": "function"
    },
    {
      "inputs": [],
      "name": "wave",
      "outputs": [],
      "stateMutability": "nonpayable",
      "type": "function"
    }
  ],
  "bytecode": "0x608060405234801561001057600080fd5b506100596040518060400160405280600f81526020017f4920616d206120636f6e7472616374000000000000000000000000000000000081525061005e60201b61022d1760201c565b6101e1565b6100fa81604051602401610072919061015f565b6040516020818303038152906040527f41304fac000000000000000000000000000000000000000000000000000000007bffffffffffffffffffffffffffffffffffffffffffffffffffffffff19166020820180517bffffffffffffffffffffffffffffffffffffffffffffffffffffffff83818316178352505050506100fd60201b60201c565b50565b60008151905060006a636f6e736f6c652e6c6f679050602083016000808483855afa5050505050565b600061013182610181565b61013b818561018c565b935061014b81856020860161019d565b610154816101d0565b840191505092915050565b600060208201905081810360008301526101798184610126565b905092915050565b600081519050919050565b600082825260208201905092915050565b60005b838110156101bb5780820151818401526020810190506101a0565b838111156101ca576000848401525b50505050565b6000601f19601f8301169050919050565b610797806101f06000396000f3fe608060405234801561001057600080fd5b50600436106100415760003560e01c806305d85eda146100465780636fe15b44146100765780639a2cdc0814610080575b600080fd5b610060600480360381019061005b91906104db565b61009e565b60405161006d919061061b565b60405180910390f35b61007e6100b6565b005b6100886101e2565b604051610095919061061b565b60405180910390f35b60016020528060005260406000206000915090505481565b6000808154809291906100c8906106c1565b919050555061010c6040518060400160405280600d81526020017f2573206861732077617665642100000000000000000000000000000000000000815250336102c6565b600160003373ffffffffffffffffffffffffffffffffffffffff1673ffffffffffffffffffffffffffffffffffffffff168152602001908152602001600020600081548092919061015c906106c1565b91905055506101e06040518060400160405280601881526020017f2573206861732077617665642025642074696d652873292e000000000000000081525033600160003373ffffffffffffffffffffffffffffffffffffffff1673ffffffffffffffffffffffffffffffffffffffff16815260200190815260200160002054610362565b565b60006102256040518060400160405280601781526020017f5765206861766520256420746f74616c20776176657321000000000000000000815250600054610401565b600054905090565b6102c381604051602401610241919061055b565b6040516020818303038152906040527f41304fac000000000000000000000000000000000000000000000000000000007bffffffffffffffffffffffffffffffffffffffffffffffffffffffff19166020820180517bffffffffffffffffffffffffffffffffffffffffffffffffffffffff838183161783525050505061049d565b50565b61035e82826040516024016102dc92919061057d565b6040516020818303038152906040527f319af333000000000000000000000000000000000000000000000000000000007bffffffffffffffffffffffffffffffffffffffffffffffffffffffff19166020820180517bffffffffffffffffffffffffffffffffffffffffffffffffffffffff838183161783525050505061049d565b5050565b6103fc83838360405160240161037a939291906105ad565b6040516020818303038152906040527f07c81217000000000000000000000000000000000000000000000000000000007bffffffffffffffffffffffffffffffffffffffffffffffffffffffff19166020820180517bffffffffffffffffffffffffffffffffffffffffffffffffffffffff838183161783525050505061049d565b505050565b61049982826040516024016104179291906105eb565b6040516020818303038152906040527f9710a9d0000000000000000000000000000000000000000000000000000000007bffffffffffffffffffffffffffffffffffffffffffffffffffffffff19166020820180517bffffffffffffffffffffffffffffffffffffffffffffffffffffffff838183161783525050505061049d565b5050565b60008151905060006a636f6e736f6c652e6c6f679050602083016000808483855afa5050505050565b6000813590506104d58161074a565b92915050565b6000602082840312156104ed57600080fd5b60006104fb848285016104c6565b91505092915050565b61050d81610652565b82525050565b600061051e82610636565b6105288185610641565b935061053881856020860161068e565b61054181610739565b840191505092915050565b61055581610684565b82525050565b600060208201905081810360008301526105758184610513565b905092915050565b600060408201905081810360008301526105978185610513565b90506105a66020830184610504565b9392505050565b600060608201905081810360008301526105c78186610513565b90506105d66020830185610504565b6105e3604083018461054c565b949350505050565b600060408201905081810360008301526106058185610513565b9050610614602083018461054c565b9392505050565b6000602082019050610630600083018461054c565b92915050565b600081519050919050565b600082825260208201905092915050565b600061065d82610664565b9050919050565b600073ffffffffffffffffffffffffffffffffffffffff82169050919050565b6000819050919050565b60005b838110156106ac578082015181840152602081019050610691565b838111156106bb576000848401525b50505050565b60006106cc82610684565b91507fffffffffffffffffffffffffffffffffffffffffffffffffffffffffffffffff8214156106ff576106fe61070a565b5b600182019050919050565b7f4e487b7100000000000000000000000000000000000000000000000000000000600052601160045260246000fd5b6000601f19601f8301169050919050565b61075381610652565b811461075e57600080fd5b5056fea2646970667358221220806dec4e4f72fb956609e323bc27a8e95a8003ff5077e7698dda3c3b762fa4ac64736f6c63430008000033",
  "linkReferences": {},
  "deployedLinkReferences": {}
}