{
  "_format": "hh-sol-artifact-1",
  "contractName": "WavePortal",
  "sourceName": "contracts/WavePortal.sol",
  "abi": [
    {
      "inputs": [],
      "stateMutability": "nonpayable",
      "type": "constructor"
    },
    {
      "anonymous": false,
      "inputs": [
        {
          "indexed": true,
          "internalType": "address",
          "name": "from",
          "type": "address"
        },
        {
          "indexed": false,
          "internalType": "uint256",
          "name": "timestamp",
          "type": "uint256"
        },
        {
          "indexed": false,
          "internalType": "string",
          "name": "message",
          "type": "string"
        }
      ],
      "name": "NewWave",
      "type": "event"
    },
    {
      "inputs": [
        {
          "internalType": "address",
          "name": "",
          "type": "address"
        }
      ],
      "name": "count",
      "outputs": [
        {
          "internalType": "uint256",
          "name": "",
          "type": "uint256"
        }
      ],
      "stateMutability": "view",
      "type": "function"
    },
    {
      "inputs": [],
      "name": "getAllWaves",
      "outputs": [
        {
          "components": [
            {
              "internalType": "address",
              "name": "waver",
              "type": "address"
            },
            {
              "internalType": "string",
              "name": "message",
              "type": "string"
            },
            {
              "internalType": "uint256",
              "name": "timestamp",
              "type": "uint256"
            }
          ],
          "internalType": "struct WavePortal.Wave[]",
          "name": "",
          "type": "tuple[]"
        }
      ],
      "stateMutability": "view",
      "type": "function"
    },
    {
      "inputs": [],
      "name": "getTotalWaves",
      "outputs": [
        {
          "internalType": "uint256",
          "name": "",
          "type": "uint256"
        }
      ],
      "stateMutability": "view",
      "type": "function"
    },
    {
      "inputs": [
        {
          "internalType": "string",
          "name": "_message",
          "type": "string"
        }
      ],
      "name": "wave",
      "outputs": [],
      "stateMutability": "nonpayable",
      "type": "function"
    }
  ],
  "bytecode": "0x60806040523480156200001157600080fd5b506200005d6040518060400160405280600f81526020017f4920616d206120636f6e747261637400000000000000000000000000000000008152506200006360201b620004d61760201c565b620001f7565b62000103816040516024016200007a919062000170565b6040516020818303038152906040527f41304fac000000000000000000000000000000000000000000000000000000007bffffffffffffffffffffffffffffffffffffffffffffffffffffffff19166020820180517bffffffffffffffffffffffffffffffffffffffffffffffffffffffff83818316178352505050506200010660201b60201c565b50565b60008151905060006a636f6e736f6c652e6c6f679050602083016000808483855afa5050505050565b60006200013c8262000194565b6200014881856200019f565b93506200015a818560208601620001b0565b6200016581620001e6565b840191505092915050565b600060208201905081810360008301526200018c81846200012f565b905092915050565b600081519050919050565b600082825260208201905092915050565b60005b83811015620001d0578082015181840152602081019050620001b3565b83811115620001e0576000848401525b50505050565b6000601f19601f8301169050919050565b610e5880620002076000396000f3fe608060405234801561001057600080fd5b506004361061004c5760003560e01c806305d85eda14610051578063449d46c0146100815780639a2cdc081461009d578063bd43a908146100bb575b600080fd5b61006b6004803603810190610066919061088f565b6100d9565b6040516100789190610b62565b60405180910390f35b61009b600480360381019061009691906108b8565b6100f1565b005b6100a561033a565b6040516100b29190610b62565b60405180910390f35b6100c3610385565b6040516100d09190610a80565b60405180910390f35b60016020528060005260406000206000915090505481565b60008081548092919061010390610d24565b91905055506101476040518060400160405280600d81526020017f25732068617320776176656421000000000000000000000000000000000000008152503361056f565b600160003373ffffffffffffffffffffffffffffffffffffffff1673ffffffffffffffffffffffffffffffffffffffff168152602001908152602001600020600081548092919061019790610d24565b919050555061021b6040518060400160405280601881526020017f2573206861732077617665642025642074696d652873292e000000000000000081525033600160003373ffffffffffffffffffffffffffffffffffffffff1673ffffffffffffffffffffffffffffffffffffffff1681526020019081526020016000205461060b565b600260405180606001604052803373ffffffffffffffffffffffffffffffffffffffff16815260200183815260200142815250908060018154018082558091505060019003906000526020600020906003020160009091909190915060008201518160000160006101000a81548173ffffffffffffffffffffffffffffffffffffffff021916908373ffffffffffffffffffffffffffffffffffffffff16021790555060208201518160010190805190602001906102da92919061076f565b506040820151816002015550503373ffffffffffffffffffffffffffffffffffffffff167f5f7e16dc676677766a70e9c5628aa6c54ddb8b6e5188e2ae1e1f17f1ffbea716428360405161032f929190610b7d565b60405180910390a250565b600061037d6040518060400160405280601781526020017f5765206861766520256420746f74616c207761766573210000000000000000008152506000546106aa565b600054905090565b60606002805480602002602001604051908101604052809291908181526020016000905b828210156104cd57838290600052602060002090600302016040518060600160405290816000820160009054906101000a900473ffffffffffffffffffffffffffffffffffffffff1673ffffffffffffffffffffffffffffffffffffffff1673ffffffffffffffffffffffffffffffffffffffff16815260200160018201805461043290610cf2565b80601f016020809104026020016040519081016040528092919081815260200182805461045e90610cf2565b80156104ab5780601f10610480576101008083540402835291602001916104ab565b820191906000526020600020905b81548152906001019060200180831161048e57829003601f168201915b50505050508152602001600282015481525050815260200190600101906103a9565b50505050905090565b61056c816040516024016104ea9190610aa2565b6040516020818303038152906040527f41304fac000000000000000000000000000000000000000000000000000000007bffffffffffffffffffffffffffffffffffffffffffffffffffffffff19166020820180517bffffffffffffffffffffffffffffffffffffffffffffffffffffffff8381831617835250505050610746565b50565b6106078282604051602401610585929190610ac4565b6040516020818303038152906040527f319af333000000000000000000000000000000000000000000000000000000007bffffffffffffffffffffffffffffffffffffffffffffffffffffffff19166020820180517bffffffffffffffffffffffffffffffffffffffffffffffffffffffff8381831617835250505050610746565b5050565b6106a583838360405160240161062393929190610af4565b6040516020818303038152906040527f07c81217000000000000000000000000000000000000000000000000000000007bffffffffffffffffffffffffffffffffffffffffffffffffffffffff19166020820180517bffffffffffffffffffffffffffffffffffffffffffffffffffffffff8381831617835250505050610746565b505050565b61074282826040516024016106c0929190610b32565b6040516020818303038152906040527f9710a9d0000000000000000000000000000000000000000000000000000000007bffffffffffffffffffffffffffffffffffffffffffffffffffffffff19166020820180517bffffffffffffffffffffffffffffffffffffffffffffffffffffffff8381831617835250505050610746565b5050565b60008151905060006a636f6e736f6c652e6c6f679050602083016000808483855afa5050505050565b82805461077b90610cf2565b90600052602060002090601f01602090048101928261079d57600085556107e4565b82601f106107b657805160ff19168380011785556107e4565b828001600101855582156107e4579182015b828111156107e35782518255916020019190600101906107c8565b5b5090506107f191906107f5565b5090565b5b8082111561080e5760008160009055506001016107f6565b5090565b600061082561082084610bde565b610bad565b90508281526020810184848401111561083d57600080fd5b610848848285610cb0565b509392505050565b60008135905061085f81610e0b565b92915050565b600082601f83011261087657600080fd5b8135610886848260208601610812565b91505092915050565b6000602082840312156108a157600080fd5b60006108af84828501610850565b91505092915050565b6000602082840312156108ca57600080fd5b600082013567ffffffffffffffff8111156108e457600080fd5b6108f084828501610865565b91505092915050565b60006109058383610a12565b905092915050565b61091681610c74565b82525050565b61092581610c74565b82525050565b600061093682610c1e565b6109408185610c41565b93508360208202850161095285610c0e565b8060005b8581101561098e578484038952815161096f85826108f9565b945061097a83610c34565b925060208a01995050600181019050610956565b50829750879550505050505092915050565b60006109ab82610c29565b6109b58185610c52565b93506109c5818560208601610cbf565b6109ce81610dfa565b840191505092915050565b60006109e482610c29565b6109ee8185610c63565b93506109fe818560208601610cbf565b610a0781610dfa565b840191505092915050565b6000606083016000830151610a2a600086018261090d565b5060208301518482036020860152610a4282826109a0565b9150506040830151610a576040860182610a62565b508091505092915050565b610a6b81610ca6565b82525050565b610a7a81610ca6565b82525050565b60006020820190508181036000830152610a9a818461092b565b905092915050565b60006020820190508181036000830152610abc81846109d9565b905092915050565b60006040820190508181036000830152610ade81856109d9565b9050610aed602083018461091c565b9392505050565b60006060820190508181036000830152610b0e81866109d9565b9050610b1d602083018561091c565b610b2a6040830184610a71565b949350505050565b60006040820190508181036000830152610b4c81856109d9565b9050610b5b6020830184610a71565b9392505050565b6000602082019050610b776000830184610a71565b92915050565b6000604082019050610b926000830185610a71565b8181036020830152610ba481846109d9565b90509392505050565b6000604051905081810181811067ffffffffffffffff82111715610bd457610bd3610dcb565b5b8060405250919050565b600067ffffffffffffffff821115610bf957610bf8610dcb565b5b601f19601f8301169050602081019050919050565b6000819050602082019050919050565b600081519050919050565b600081519050919050565b6000602082019050919050565b600082825260208201905092915050565b600082825260208201905092915050565b600082825260208201905092915050565b6000610c7f82610c86565b9050919050565b600073ffffffffffffffffffffffffffffffffffffffff82169050919050565b6000819050919050565b82818337600083830152505050565b60005b83811015610cdd578082015181840152602081019050610cc2565b83811115610cec576000848401525b50505050565b60006002820490506001821680610d0a57607f821691505b60208210811415610d1e57610d1d610d9c565b5b50919050565b6000610d2f82610ca6565b91507fffffffffffffffffffffffffffffffffffffffffffffffffffffffffffffffff821415610d6257610d61610d6d565b5b600182019050919050565b7f4e487b7100000000000000000000000000000000000000000000000000000000600052601160045260246000fd5b7f4e487b7100000000000000000000000000000000000000000000000000000000600052602260045260246000fd5b7f4e487b7100000000000000000000000000000000000000000000000000000000600052604160045260246000fd5b6000601f19601f8301169050919050565b610e1481610c74565b8114610e1f57600080fd5b5056fea2646970667358221220581b601927da677d36fb5489b4d52132155de63f4adf7d8dff4b8b282556824c64736f6c63430008000033",
  "linkReferences": {},
  "deployedLinkReferences": {}
}