{
  "_format": "hh-sol-artifact-1",
  "contractName": "WavePortal",
  "sourceName": "contracts/WavePortal.sol",
  "abi": [
    {
      "inputs": [],
      "stateMutability": "payable",
      "type": "constructor"
    },
    {
      "anonymous": false,
      "inputs": [
        {
          "indexed": true,
          "internalType": "address",
          "name": "from",
          "type": "address"
        },
        {
          "indexed": false,
          "internalType": "uint256",
          "name": "timestamp",
          "type": "uint256"
        },
        {
          "indexed": false,
          "internalType": "string",
          "name": "message",
          "type": "string"
        }
      ],
      "name": "NewWave",
      "type": "event"
    },
    {
      "inputs": [
        {
          "internalType": "address",
          "name": "",
          "type": "address"
        }
      ],
      "name": "count",
      "outputs": [
        {
          "internalType": "uint256",
          "name": "",
          "type": "uint256"
        }
      ],
      "stateMutability": "view",
      "type": "function"
    },
    {
      "inputs": [],
      "name": "getAllWaves",
      "outputs": [
        {
          "components": [
            {
              "internalType": "address",
              "name": "waver",
              "type": "address"
            },
            {
              "internalType": "string",
              "name": "message",
              "type": "string"
            },
            {
              "internalType": "uint256",
              "name": "timestamp",
              "type": "uint256"
            }
          ],
          "internalType": "struct WavePortal.Wave[]",
          "name": "",
          "type": "tuple[]"
        }
      ],
      "stateMutability": "view",
      "type": "function"
    },
    {
      "inputs": [],
      "name": "getTotalWaves",
      "outputs": [
        {
          "internalType": "uint256",
          "name": "",
          "type": "uint256"
        }
      ],
      "stateMutability": "view",
      "type": "function"
    },
    {
      "inputs": [
        {
          "internalType": "address",
          "name": "",
          "type": "address"
        }
      ],
      "name": "lastWaveAt",
      "outputs": [
        {
          "internalType": "uint256",
          "name": "",
          "type": "uint256"
        }
      ],
      "stateMutability": "view",
      "type": "function"
    },
    {
      "inputs": [
        {
          "internalType": "string",
          "name": "_message",
          "type": "string"
        }
      ],
      "name": "wave",
      "outputs": [],
      "stateMutability": "nonpayable",
      "type": "function"
    }
  ],
  "bytecode": "0x60806040526200004f6040518060400160405280600f81526020017f4920616d206120636f6e747261637400000000000000000000000000000000008152506200007760201b620007af1760201c565b606444426200005f9190620001c4565b6200006b919062000261565b60018190555062000308565b62000117816040516024016200008e919062000184565b6040516020818303038152906040527f41304fac000000000000000000000000000000000000000000000000000000007bffffffffffffffffffffffffffffffffffffffffffffffffffffffff19166020820180517bffffffffffffffffffffffffffffffffffffffffffffffffffffffff83818316178352505050506200011a60201b60201c565b50565b60008151905060006a636f6e736f6c652e6c6f679050602083016000808483855afa5050505050565b60006200015082620001a8565b6200015c8185620001b3565b93506200016e8185602086016200022b565b6200017981620002f7565b840191505092915050565b60006020820190508181036000830152620001a0818462000143565b905092915050565b600081519050919050565b600082825260208201905092915050565b6000620001d18262000221565b9150620001de8362000221565b9250827fffffffffffffffffffffffffffffffffffffffffffffffffffffffffffffffff0382111562000216576200021562000299565b5b828201905092915050565b6000819050919050565b60005b838110156200024b5780820151818401526020810190506200022e565b838111156200025b576000848401525b50505050565b60006200026e8262000221565b91506200027b8362000221565b9250826200028e576200028d620002c8565b5b828206905092915050565b7f4e487b7100000000000000000000000000000000000000000000000000000000600052601160045260246000fd5b7f4e487b7100000000000000000000000000000000000000000000000000000000600052601260045260246000fd5b6000601f19601f8301169050919050565b6113b380620003186000396000f3fe608060405234801561001057600080fd5b50600436106100575760003560e01c806305d85eda1461005c578063449d46c01461008c5780639a2cdc08146100a8578063bd43a908146100c6578063cb199503146100e4575b600080fd5b61007660048036038101906100719190610b68565b610114565b6040516100839190610ffc565b60405180910390f35b6100a660048036038101906100a19190610b91565b61012c565b005b6100b06105fb565b6040516100bd9190610ffc565b60405180910390f35b6100ce610646565b6040516100db9190610eba565b60405180910390f35b6100fe60048036038101906100f99190610b68565b610797565b60405161010b9190610ffc565b60405180910390f35b60026020528060005260406000206000915090505481565b42610384600460003373ffffffffffffffffffffffffffffffffffffffff1673ffffffffffffffffffffffffffffffffffffffff1681526020019081526020016000205461017a9190611119565b11156101bb576040517f08c379a00000000000000000000000000000000000000000000000000000000081526004016101b290610fbc565b60405180910390fd5b42600460003373ffffffffffffffffffffffffffffffffffffffff1673ffffffffffffffffffffffffffffffffffffffff168152602001908152602001600020819055506000808154809291906102119061121f565b91905055506102556040518060400160405280600d81526020017f257320686173207761766564210000000000000000000000000000000000000081525033610848565b600260003373ffffffffffffffffffffffffffffffffffffffff1673ffffffffffffffffffffffffffffffffffffffff16815260200190815260200160002060008154809291906102a59061121f565b91905055506103296040518060400160405280601881526020017f2573206861732077617665642025642074696d652873292e000000000000000081525033600260003373ffffffffffffffffffffffffffffffffffffffff1673ffffffffffffffffffffffffffffffffffffffff168152602001908152602001600020546108e4565b600360405180606001604052803373ffffffffffffffffffffffffffffffffffffffff16815260200183815260200142815250908060018154018082558091505060019003906000526020600020906003020160009091909190915060008201518160000160006101000a81548173ffffffffffffffffffffffffffffffffffffffff021916908373ffffffffffffffffffffffffffffffffffffffff16021790555060208201518160010190805190602001906103e8929190610a48565b50604082015181600201555050606460015444426104069190611119565b6104109190611119565b61041a9190611268565b6001819055506104616040518060400160405280601681526020017f52616e646f6d20232067656e6572617465643a20256400000000000000000000815250600154610983565b603260015410156105a8576104ab6040518060400160405280601581526020017f25732068617320776f6e20746865207072697a6521000000000000000000000081525033610848565b6000655af3107a40009050478111156104f9576040517f08c379a00000000000000000000000000000000000000000000000000000000081526004016104f090610f9c565b60405180910390fd5b60003373ffffffffffffffffffffffffffffffffffffffff168260405161051f90610ea5565b60006040518083038185875af1925050503d806000811461055c576040519150601f19603f3d011682016040523d82523d6000602084013e610561565b606091505b50509050806105a5576040517f08c379a000000000000000000000000000000000000000000000000000000000815260040161059c90610fdc565b60405180910390fd5b50505b3373ffffffffffffffffffffffffffffffffffffffff167f5f7e16dc676677766a70e9c5628aa6c54ddb8b6e5188e2ae1e1f17f1ffbea71642836040516105f0929190611017565b60405180910390a250565b600061063e6040518060400160405280601781526020017f5765206861766520256420746f74616c20776176657321000000000000000000815250600054610983565b600054905090565b60606003805480602002602001604051908101604052809291908181526020016000905b8282101561078e57838290600052602060002090600302016040518060600160405290816000820160009054906101000a900473ffffffffffffffffffffffffffffffffffffffff1673ffffffffffffffffffffffffffffffffffffffff1673ffffffffffffffffffffffffffffffffffffffff1681526020016001820180546106f3906111ed565b80601f016020809104026020016040519081016040528092919081815260200182805461071f906111ed565b801561076c5780601f106107415761010080835404028352916020019161076c565b820191906000526020600020905b81548152906001019060200180831161074f57829003601f168201915b505050505081526020016002820154815250508152602001906001019061066a565b50505050905090565b60046020528060005260406000206000915090505481565b610845816040516024016107c39190610edc565b6040516020818303038152906040527f41304fac000000000000000000000000000000000000000000000000000000007bffffffffffffffffffffffffffffffffffffffffffffffffffffffff19166020820180517bffffffffffffffffffffffffffffffffffffffffffffffffffffffff8381831617835250505050610a1f565b50565b6108e0828260405160240161085e929190610efe565b6040516020818303038152906040527f319af333000000000000000000000000000000000000000000000000000000007bffffffffffffffffffffffffffffffffffffffffffffffffffffffff19166020820180517bffffffffffffffffffffffffffffffffffffffffffffffffffffffff8381831617835250505050610a1f565b5050565b61097e8383836040516024016108fc93929190610f2e565b6040516020818303038152906040527f07c81217000000000000000000000000000000000000000000000000000000007bffffffffffffffffffffffffffffffffffffffffffffffffffffffff19166020820180517bffffffffffffffffffffffffffffffffffffffffffffffffffffffff8381831617835250505050610a1f565b505050565b610a1b8282604051602401610999929190610f6c565b6040516020818303038152906040527f9710a9d0000000000000000000000000000000000000000000000000000000007bffffffffffffffffffffffffffffffffffffffffffffffffffffffff19166020820180517bffffffffffffffffffffffffffffffffffffffffffffffffffffffff8381831617835250505050610a1f565b5050565b60008151905060006a636f6e736f6c652e6c6f679050602083016000808483855afa5050505050565b828054610a54906111ed565b90600052602060002090601f016020900481019282610a765760008555610abd565b82601f10610a8f57805160ff1916838001178555610abd565b82800160010185558215610abd579182015b82811115610abc578251825591602001919060010190610aa1565b5b509050610aca9190610ace565b5090565b5b80821115610ae7576000816000905550600101610acf565b5090565b6000610afe610af984611078565b611047565b905082815260208101848484011115610b1657600080fd5b610b218482856111ab565b509392505050565b600081359050610b3881611366565b92915050565b600082601f830112610b4f57600080fd5b8135610b5f848260208601610aeb565b91505092915050565b600060208284031215610b7a57600080fd5b6000610b8884828501610b29565b91505092915050565b600060208284031215610ba357600080fd5b600082013567ffffffffffffffff811115610bbd57600080fd5b610bc984828501610b3e565b91505092915050565b6000610bde8383610e37565b905092915050565b610bef8161116f565b82525050565b610bfe8161116f565b82525050565b6000610c0f826110b8565b610c1981856110db565b935083602082028501610c2b856110a8565b8060005b85811015610c675784840389528151610c488582610bd2565b9450610c53836110ce565b925060208a01995050600181019050610c2f565b50829750879550505050505092915050565b6000610c84826110c3565b610c8e81856110f7565b9350610c9e8185602086016111ba565b610ca781611355565b840191505092915050565b6000610cbd826110c3565b610cc78185611108565b9350610cd78185602086016111ba565b610ce081611355565b840191505092915050565b6000610cf8603483611108565b91507f547279696e6720746f207769746864726177206d6f7265206d6f6e657920746860008301527f616e2074686520636f6e7472616374206861732e0000000000000000000000006020830152604082019050919050565b6000610d5e602383611108565b91507f57616974203135206d696e75746573206265666f726520776176696e6720616760008301527f61696e00000000000000000000000000000000000000000000000000000000006020830152604082019050919050565b6000610dc4602783611108565b91507f4661696c656420746f207769746864726177206d6f6e65792066726f6d20636f60008301527f6e74726163742e000000000000000000000000000000000000000000000000006020830152604082019050919050565b6000610e2a6000836110ec565b9150600082019050919050565b6000606083016000830151610e4f6000860182610be6565b5060208301518482036020860152610e678282610c79565b9150506040830151610e7c6040860182610e87565b508091505092915050565b610e90816111a1565b82525050565b610e9f816111a1565b82525050565b6000610eb082610e1d565b9150819050919050565b60006020820190508181036000830152610ed48184610c04565b905092915050565b60006020820190508181036000830152610ef68184610cb2565b905092915050565b60006040820190508181036000830152610f188185610cb2565b9050610f276020830184610bf5565b9392505050565b60006060820190508181036000830152610f488186610cb2565b9050610f576020830185610bf5565b610f646040830184610e96565b949350505050565b60006040820190508181036000830152610f868185610cb2565b9050610f956020830184610e96565b9392505050565b60006020820190508181036000830152610fb581610ceb565b9050919050565b60006020820190508181036000830152610fd581610d51565b9050919050565b60006020820190508181036000830152610ff581610db7565b9050919050565b60006020820190506110116000830184610e96565b92915050565b600060408201905061102c6000830185610e96565b818103602083015261103e8184610cb2565b90509392505050565b6000604051905081810181811067ffffffffffffffff8211171561106e5761106d611326565b5b8060405250919050565b600067ffffffffffffffff82111561109357611092611326565b5b601f19601f8301169050602081019050919050565b6000819050602082019050919050565b600081519050919050565b600081519050919050565b6000602082019050919050565b600082825260208201905092915050565b600081905092915050565b600082825260208201905092915050565b600082825260208201905092915050565b6000611124826111a1565b915061112f836111a1565b9250827fffffffffffffffffffffffffffffffffffffffffffffffffffffffffffffffff0382111561116457611163611299565b5b828201905092915050565b600061117a82611181565b9050919050565b600073ffffffffffffffffffffffffffffffffffffffff82169050919050565b6000819050919050565b82818337600083830152505050565b60005b838110156111d85780820151818401526020810190506111bd565b838111156111e7576000848401525b50505050565b6000600282049050600182168061120557607f821691505b60208210811415611219576112186112f7565b5b50919050565b600061122a826111a1565b91507fffffffffffffffffffffffffffffffffffffffffffffffffffffffffffffffff82141561125d5761125c611299565b5b600182019050919050565b6000611273826111a1565b915061127e836111a1565b92508261128e5761128d6112c8565b5b828206905092915050565b7f4e487b7100000000000000000000000000000000000000000000000000000000600052601160045260246000fd5b7f4e487b7100000000000000000000000000000000000000000000000000000000600052601260045260246000fd5b7f4e487b7100000000000000000000000000000000000000000000000000000000600052602260045260246000fd5b7f4e487b7100000000000000000000000000000000000000000000000000000000600052604160045260246000fd5b6000601f19601f8301169050919050565b61136f8161116f565b811461137a57600080fd5b5056fea26469706673582212202727d3687bcfa3ef71cfe421ef71aad502b6366a1992090ab775f3a93da0a05a64736f6c63430008000033",
  "linkReferences": {},
  "deployedLinkReferences": {}
}